{
  "_format": "hh3-artifact-1",
  "contractName": "Chai",
  "sourceName": "contracts/chai.sol",
  "abi": [
    {
      "inputs": [],
      "stateMutability": "nonpayable",
      "type": "constructor"
    },
    {
      "inputs": [
        {
          "internalType": "string",
          "name": "name",
          "type": "string"
        },
        {
          "internalType": "string",
          "name": "message",
          "type": "string"
        }
      ],
      "name": "buyChai",
      "outputs": [],
      "stateMutability": "payable",
      "type": "function"
    },
    {
      "inputs": [],
      "name": "getMemos",
      "outputs": [
        {
          "components": [
            {
              "internalType": "string",
              "name": "name",
              "type": "string"
            },
            {
              "internalType": "string",
              "name": "message",
              "type": "string"
            },
            {
              "internalType": "uint256",
              "name": "timestamp",
              "type": "uint256"
            },
            {
              "internalType": "address",
              "name": "from",
              "type": "address"
            }
          ],
          "internalType": "struct Chai.Memo[]",
          "name": "",
          "type": "tuple[]"
        }
      ],
      "stateMutability": "view",
      "type": "function"
    }
  ],
  "bytecode": "0x6080604052348015600e575f5ffd5b503360015f6101000a81548173ffffffffffffffffffffffffffffffffffffffff021916908373ffffffffffffffffffffffffffffffffffffffff160217905550610b068061005c5f395ff3fe608060405260043610610028575f3560e01c80636a13d8591461002c578063865c517214610048575b5f5ffd5b6100466004803603810190610041919061051d565b610072565b005b348015610053575f5ffd5b5061005c6101f7565b604051610069919061076c565b60405180910390f35b5f34116100b4576040517f08c379a00000000000000000000000000000000000000000000000000000000081526004016100ab906107e6565b60405180910390fd5b60015f9054906101000a900473ffffffffffffffffffffffffffffffffffffffff1673ffffffffffffffffffffffffffffffffffffffff166108fc3490811502906040515f60405180830381858888f19350505050158015610118573d5f5f3e3d5ffd5b505f60405180608001604052808481526020018381526020014281526020013373ffffffffffffffffffffffffffffffffffffffff16815250908060018154018082558091505060019003905f5260205f2090600402015f909190919091505f820151815f01908161018a9190610a01565b5060208201518160010190816101a09190610a01565b50604082015181600201556060820151816003015f6101000a81548173ffffffffffffffffffffffffffffffffffffffff021916908373ffffffffffffffffffffffffffffffffffffffff16021790555050505050565b60605f805480602002602001604051908101604052809291908181526020015f905b828210156103c7578382905f5260205f2090600402016040518060800160405290815f8201805461024990610831565b80601f016020809104026020016040519081016040528092919081815260200182805461027590610831565b80156102c05780601f10610297576101008083540402835291602001916102c0565b820191905f5260205f20905b8154815290600101906020018083116102a357829003601f168201915b505050505081526020016001820180546102d990610831565b80601f016020809104026020016040519081016040528092919081815260200182805461030590610831565b80156103505780601f1061032757610100808354040283529160200191610350565b820191905f5260205f20905b81548152906001019060200180831161033357829003601f168201915b5050505050815260200160028201548152602001600382015f9054906101000a900473ffffffffffffffffffffffffffffffffffffffff1673ffffffffffffffffffffffffffffffffffffffff1673ffffffffffffffffffffffffffffffffffffffff168152505081526020019060010190610219565b50505050905090565b5f604051905090565b5f5ffd5b5f5ffd5b5f5ffd5b5f5ffd5b5f601f19601f8301169050919050565b7f4e487b71000000000000000000000000000000000000000000000000000000005f52604160045260245ffd5b61042f826103e9565b810181811067ffffffffffffffff8211171561044e5761044d6103f9565b5b80604052505050565b5f6104606103d0565b905061046c8282610426565b919050565b5f67ffffffffffffffff82111561048b5761048a6103f9565b5b610494826103e9565b9050602081019050919050565b828183375f83830152505050565b5f6104c16104bc84610471565b610457565b9050828152602081018484840111156104dd576104dc6103e5565b5b6104e88482856104a1565b509392505050565b5f82601f830112610504576105036103e1565b5b81356105148482602086016104af565b91505092915050565b5f5f60408385031215610533576105326103d9565b5b5f83013567ffffffffffffffff8111156105505761054f6103dd565b5b61055c858286016104f0565b925050602083013567ffffffffffffffff81111561057d5761057c6103dd565b5b610589858286016104f0565b9150509250929050565b5f81519050919050565b5f82825260208201905092915050565b5f819050602082019050919050565b5f81519050919050565b5f82825260208201905092915050565b8281835e5f83830152505050565b5f6105ee826105bc565b6105f881856105c6565b93506106088185602086016105d6565b610611816103e9565b840191505092915050565b5f819050919050565b61062e8161061c565b82525050565b5f73ffffffffffffffffffffffffffffffffffffffff82169050919050565b5f61065d82610634565b9050919050565b61066d81610653565b82525050565b5f608083015f8301518482035f86015261068d82826105e4565b915050602083015184820360208601526106a782826105e4565b91505060408301516106bc6040860182610625565b5060608301516106cf6060860182610664565b508091505092915050565b5f6106e58383610673565b905092915050565b5f602082019050919050565b5f61070382610593565b61070d818561059d565b93508360208202850161071f856105ad565b805f5b8581101561075a578484038952815161073b85826106da565b9450610746836106ed565b925060208a01995050600181019050610722565b50829750879550505050505092915050565b5f6020820190508181035f83015261078481846106f9565b905092915050565b5f82825260208201905092915050565b7f706c65617365207061792067726561746572207468616e2030206574686572005f82015250565b5f6107d0601f8361078c565b91506107db8261079c565b602082019050919050565b5f6020820190508181035f8301526107fd816107c4565b9050919050565b7f4e487b71000000000000000000000000000000000000000000000000000000005f52602260045260245ffd5b5f600282049050600182168061084857607f821691505b60208210810361085b5761085a610804565b5b50919050565b5f819050815f5260205f209050919050565b5f6020601f8301049050919050565b5f82821b905092915050565b5f600883026108bd7fffffffffffffffffffffffffffffffffffffffffffffffffffffffffffffffff82610882565b6108c78683610882565b95508019841693508086168417925050509392505050565b5f819050919050565b5f6109026108fd6108f88461061c565b6108df565b61061c565b9050919050565b5f819050919050565b61091b836108e8565b61092f61092782610909565b84845461088e565b825550505050565b5f5f905090565b610946610937565b610951818484610912565b505050565b5b81811015610974576109695f8261093e565b600181019050610957565b5050565b601f8211156109b95761098a81610861565b61099384610873565b810160208510156109a2578190505b6109b66109ae85610873565b830182610956565b50505b505050565b5f82821c905092915050565b5f6109d95f19846008026109be565b1980831691505092915050565b5f6109f183836109ca565b9150826002028217905092915050565b610a0a826105bc565b67ffffffffffffffff811115610a2357610a226103f9565b5b610a2d8254610831565b610a38828285610978565b5f60209050601f831160018114610a69575f8415610a57578287015190505b610a6185826109e6565b865550610ac8565b601f198416610a7786610861565b5f5b82811015610a9e57848901518255600182019150602085019450602081019050610a79565b86831015610abb5784890151610ab7601f8916826109ca565b8355505b6001600288020188555050505b50505050505056fea2646970667358221220f9facce65724b594166d65ee17fff882c9e162104e757f19c9ee1ec1eb29f9ad64736f6c634300081c0033",
  "linkReferences": {},
  "deployedLinkReferences": {},
  "immutableReferences": {},
  "inputSourceName": "project/contracts/chai.sol",
  "buildInfoId": "solc-0_8_28-15a5bc1d4fa7957e63fd0cbeae373e5617f64f62"
}